:100000000C949C000C94B9000C94B9000C94B900A9
:100010000C94B9000C94B9000C94B9000C94B9007C
:100020000C94B9000C94B9000C947C040C94B900A5
:100030000C94B9000C94B9000C94B9000C94B9005C
:100040000C94B9000C94B9000C94B9000C94B9004C
:100050000C94B9000C94C6020C94B9000C94B9002D
:100060000C94B9000C94B9000C94B9000C94B9002C
:100070000C94AE030C94B9000C94B9000C94B90024
:100080000C94B9000C94B9000C94B9000C94B9000C
:100090000C94B9000C94B9000C94B9000C94B900FC
:1000A0000C94B9000C94B9000C94B9001201100121
:1000B000020000084F1B070001000102DC010902D9
:1000C0003E00020100C032090400000102020100EA
:1000D000052400100104240206052406000107057A
:1000E00082030800FF09040100020A00000007055E
:1000F0000402100001070583021000010403090433
:1001000018034400650061006E0020004300610098
:100110006D0065007200610000001C034C0055007A
:1001200046004100200043004400430020004400FA
:1001300065006D006F00000011241FBECFEFDAE0F4
:10014000DEBFCDBF11E0A0E0B1E0EEEAF4E202C014
:1001500005900D92A632B107D9F711E0A6E2B1E001
:1001600001C01D92A235B107E1F70E94BB000C94BB
:1001700055120C940000EF920F9380E895E20E94D4
:10018000F70378940E94D80180932A0180E091E0DF
:100190000E94C1018AE00E94D0018DE00E94D0013E
:1001A00087E16BE347E321E001E193E1E92E0E945F
:1001B00001020E94BB020E949303279AFFCFDF93A4
:1001C000CF9300D000D0CDB7DEB780E091E09A8326
:1001D000898324EF31E03C832B8300000000000082
:1001E00000008B819C8101979C838B838B819C81F8
:1001F000892B99F789819A8101979A8389838981CB
:100200009A81892B41F70F900F900F900F90CF910B
:10021000DF910895DF93CF93CDB7DEB728970FB660
:10022000F894DEBF0FBECDBF28EE33E01A821982EC
:100230001C821B821E821D8238872F838D819E81A6
:1002400001969E838D838D819E8181599140B4F367
:100250008B819C8101969C838B838B819C818B59A4
:10026000914064F389819A8101969A838983898177
:100270009A818E59914014F38F81988501979887C0
:100280008F83D4CFEF92FF920F931F93CF93DF937F
:100290008C01E42ECB01F62E492FC0E0D0E08F2D4B
:1002A000942F6E2D70E00E9427129C018F2D942FA9
:1002B0006E2D70E00E942712FB01CB01F62E492F14
:1002C0002A30310518F0822F895C02C0822F805DB0
:1002D000D8018D938D01CE010196EF2B11F0EC0129
:1002E000DECFFD011082E81BF90BDF01AC0FBD1F53
:1002F0009E0180E090E00BC050814C91541711F0AA
:1003000040835C93019621503040319611978217BB
:10031000930790F3DF91CF911F910F91FF90EF9092
:100320000895FC01A0E0B0E002C0319611968081F2
:100330008823D9F7319760E070E041E050E01DC0BC
:100340008081282F30E0205330402A303105A0F43E
:10035000429FC001439F900D529F900D1124680F42
:10036000791FCA01880F991F23E0440F551F2A9552
:10037000E1F7480F591F11973197109709F7CB01F3
:100380000895CF93DF93EC0103C021960E94CF0321
:1003900088818823D1F70E94FA03DF91CF910895D5
:1003A0000E94CF030E94FA0308950E94FA03089561
:1003B000EF92FF921F93DF93CF930F92CDB7DEB7EB
:1003C0007E010894E11CF11CC7010E94BF03182F95
:1003D0000E94FA031123C1F389810F90CF91DF911D
:1003E0001F91FF90EF900895CF93DF93EC010E944F
:1003F000D8018D3011F08993FACF1882DF91CF9117
:100400000895EF920F9340934101609343018093CD
:100410003F012093440100934001E09242010F917B
:10042000EF900895809141018F5F809341018C335B
:1004300009F05DC010924101809143018F5F80936C
:1004400043018C3309F053C01092430180913F0166
:100450008F5F80933F01883111F410923F018091AA
:1004600040018F5F809340018C3179F48091440189
:10047000823059F481E08093400183E0809344010D
:10048000809142018F5F80934201809140018E31C3
:10049000C9F480914401843031F0863021F08930F4
:1004A00011F08B3079F491E0909340018F5F80934D
:1004B00044018C3011F490934401809142018F5F8C
:1004C00080934201809140018F3189F491E09093B3
:1004D0004001809144018F5F809344018C3011F47E
:1004E00090934401809142018F5F8093420108956F
:1004F0001F93182F6AE00E941B12805D0E94D0019A
:10050000812F6AE00E941B12892F805D0E94D0011A
:100510001F9108958DE00E94D00180913F010E94BB
:1005200078028AE30E94D001809143010E94780200
:100530008AE30E94D001809141010E94780280E20A
:100540000E94D0018DE20E94D00180E20E94D00181
:10055000809140010E9478028FE20E94D001809138
:1005600044010E9478028FE20E94D00180914201F2
:100570000E947802089516BC82E084BD80936E00CC
:100580008CE787BD83E085BD789408951F920F9214
:100590000FB60F9211242F933F934F935F936F9356
:1005A0007F938F939F93AF93BF93EF93FF9380912C
:1005B00026019091270101969093270180932601AF
:1005C000885E934041F40E9412021092270110921B
:1005D00026010E948A02FF91EF91BF91AF919F91F6
:1005E0008F917F916F915F914F913F912F910F90DC
:1005F0000FBE0F901F9018951092850010928400E6
:10060000E0E8F0E080818064808388E690E0909369
:10061000890080938800E1E8F0E080818960808330
:10062000089587E690E09093CD008093CC00E8ECAD
:10063000F0E080818D7F808388E18093C900EAECBF
:10064000F0E08081877F8083808186608083089549
:100650008091C80080780895982F8091C80085FF08
:10066000FCCF9093CE0008958091C80087FFFCCF07
:100670008091CE000895FC0107C08091C80085FFDD
:10068000FCCF31969093CE0090819923B1F70895D5
:10069000FC018091C80087FFFCCF8091CE00819340
:1006A00080818823B1F781E090E00895F999FECF29
:1006B00092BD81BD60BDFA9AF99A0895F999FECF6D
:1006C00092BD81BDF89A80B508950F931F93CF9383
:1006D000DF93EB0107C08C010F5F1F4F21960E9433
:1006E0005603C80168816623B1F70E945603DF9163
:1006F000CF911F910F91089581E480937C0087E84A
:1007000080937A00089580917A00806480937A00C3
:1007100080917A0086FDFCCF8091780090917900DD
:1007200020E0822B0895EAE7F0E080818F778083D4
:10073000EBE7F0E080818064808380B78B6080BFCE
:10074000ECE7F0E08081816080830895809128014A
:10075000882319F01092280181E008951F920F92CA
:100760000FB60F9211248F9381E0809328018F910F
:100770000F900FBE0F901F90189508950895CF9376
:10078000DF93EC0186E091E00E94010797FF02C031
:1007900080E002C0888381E0DF91CF910895682FC7
:1007A00086E091E00E942F08089586E091E00E9483
:1007B000D608089586E091E00E948508089584B7E0
:1007C000877F84BF88E10FB6F89480936000109211
:1007D00060000FBE80E090E020E80FB6F894209310
:1007E0006100809361000FBE0E94620408950E9420
:1007F000DF03089586E091E00E9402080E94B90696
:1008000008950E946F040E947704E0EEF0E080817A
:1008100081608083A8EDB0E08C918F778C9319BCB8
:10082000E7EDF0E080818E7F80838C918F7E8C93CA
:10083000109248010895EF92FF920F931F930E9428
:100840006F040E94770408ED10E0F80180818F7733
:10085000808380818068808380818F7D808319BCC4
:1008600010924901109245011092470110924601E1
:1008700080EEE82EF12CF70180818B7F8083F801D8
:1008800080818160808380E060E042E00E94B20964
:10089000E1EEF0E080818E7F8083E2EEF0E0808107
:1008A00081608083808188608083F70180818E7F72
:1008B0008083F8018081806180831F910F91FF9078
:1008C000EF900895E7EDF0E080818160808384E01F
:1008D00082BF81E0809348010E941B040895E8EDE7
:1008E000F0E080818E7F80831092E2000895109264
:1008F000DA001092E10008951F920F920FB60F9246
:1009000011242F933F934F935F936F937F938F9314
:100910009F93AF93BF93EF93FF938091E10082FF8A
:100920000BC08091E20082FF07C08091E1008B7FC5
:100930008093E1000E94B8068091DA0080FF1EC01B
:100940008091D80080FF1AC08091DA008E7F80935A
:10095000DA008091D90080FF0CC019BC82E089BD0B
:1009600009B400FEFDCF81E0809349010E94BD03E0
:1009700005C019BC109249010E94BE038091E1009C
:1009800080FF19C08091E20080FF15C08091E200D5
:100990008E7F8093E2008091E20080618093E2008C
:1009A0008091D80080628093D80019BC85E0809344
:1009B00049010E94B8068091E10084FF2DC080911A
:1009C000E20084FF29C019BC82E089BD09B400FEA1
:1009D000FDCF8091D8008F7D8093D8008091E10079
:1009E0008F7E8093E1008091E2008F7E8093E20011
:1009F0008091E20081608093E2008091450188232C
:100A000031F48091E30087FD02C081E001C084E001
:100A1000809349010E94B8068091E10083FF24C0C1
:100A20008091E20083FF20C08091E100877F809366
:100A3000E10082E080934901109245018091E1003C
:100A40008E7F8093E1008091E2008E7F8093E200B0
:100A50008091E20080618093E20080E060E042E00B
:100A60000E94B2090E94B806FF91EF91BF91AF9129
:100A70009F918F917F916F915F914F913F912F91B6
:100A80000F900FBE0F901F9018950F931F93DF9339
:100A9000CF93CDB7DEB7AC970FB6F894DEBF0FBEDD
:100AA000CDBFEAE4F1E08091F100819321E0E235ED
:100AB000F207C9F70E94D5038091E80083FF3FC188
:100AC00080914A0130914B01353009F487C03630AE
:100AD00040F43130C9F1313070F0333009F02FC1BA
:100AE00033C0383009F4FAC0393009F40AC136305D
:100AF00009F025C198C0803821F0823809F01FC163
:100B000008C09091460180914701882399F0926036
:100B100011C080914E018F708093E9008091EB00AD
:100B200090E025E0969587952A95E1F7982F9170AA
:100B30001092E9008091E800877F8093E80090930D
:100B4000F1001092F100D5C0882319F0823009F02D
:100B5000F6C090E08F719070009721F0029709F035
:100B6000EEC00CC080914C01813009F0E8C01092B9
:100B70004701333069F5809347012AC080914C01C9
:100B8000882331F520914E012F7009F4D8C02093AD
:100B9000E9008091EB0080FF1BC0333021F480918D
:100BA000EB00806213C08091EB0080618093EB00CA
:100BB00081E090E002C0880F991F2A95E2F78093A8
:100BC000EA001092EA008091EB0088608093EB00CD
:100BD0001092E9008091E800877F8EC0882309F099
:100BE000AEC010914C011F770FB7F8948091E800C8
:100BF000877F8093E8000E94FB098091E80080FFD6
:100C0000FCCF8091E3008078812B8093E3008068A3
:100C10008093E300112311F482E001C083E080930C
:100C200049010FBF8CC08058823008F088C0809185
:100C30004C0190914D0123E08C3D920709F034C0A6
:100C400083E08C838AE28B837FB7F894DE0115966C
:100C50006EE040E050E011E2E62FF0E01093570024
:100C6000849140FF03C082958F706F5F8F70282F33
:100C700030E08A3018F0C901C79602C0C901C09699
:100C80008D939D934F5F5F4F4431510529F77FBF8F
:100C90008091E800877F8093E800CE0103966AE2A6
:100CA00070E00E944E0A14C060914E01AE014F5F89
:100CB0005F4F0E948409BC01009709F440C08091F5
:100CC000E800877F8093E80089819A810E94B20BB7
:100CD0008091E8008B778093E80031C0803879F507
:100CE0008091E800877F8093E800809145018093A0
:100CF000F1008091E8008E778093E8000E94FB0964
:100D00001EC08823E1F490914C019230C0F4809190
:100D1000E800877F8093E800909345010E94FB09DB
:100D200080914501882331F48091E30087FD02C062
:100D300081E001C084E0809349010E94DA03809140
:100D4000E80083FF0AC08091EB0080628093EB0093
:100D50008091E800877F8093E800AC960FB6F89406
:100D6000DEBF0FBECDBFCF91DF911F910F910895D0
:100D700008951F9380914901882369F01091E9003B
:100D80001092E9008091E80083FF02C00E944505AF
:100D90001F701093E9001F910895FC018091490193
:100DA000843059F581899289A389B4890097A10576
:100DB000B10519F185818093E9008091E80082FFF7
:100DC0001CC04091F3002091F200942F80E030E0AD
:100DD000822B932B892B31F48091E8008B778093C1
:100DE000E8000BC08091F3009091F200382F20E0D2
:100DF000492F50E0422B532B02C040E050E0CA0183
:100E00000895FC0180914901843091F5818992898E
:100E1000A389B4890097A105B10551F1858180931B
:100E2000E9008091E80082FF23C04091F300209107
:100E3000F200942F80E030E0822B932B892B19F461
:100E40006FEF7FEF04C08091F100682F70E0409158
:100E5000F3002091F200942F80E030E0822B932B5E
:100E6000892B41F48091E8008B778093E80002C0E1
:100E70006FEF7FEFCB010895FB012EE0DB011D92A8
:100E80002A95E9F723E0238325E538E03187208799
:100E900022E637E033872287958784870895FB0110
:100EA0002EE0DB011D922A95E9F723E0238325E557
:100EB00038E03187208723E138E033872287958720
:100EC00084870895FC01848595850E9401079C0113
:100ED00097FF02C02EEF3FEFC901089508950F93C9
:100EE0001F93DF93CF93CDB7DEB728970FB6F89453
:100EF000DEBF0FBECDBF8C0180914901843051F51A
:100F0000F80181899289A389B4890097A105B10567
:100F100009F181858093E900DE011196EEE1F1E0AF
:100F200088E001900D928150E1F7CE01019668E0D2
:100F300070E040E050E00E94C611C8010F9662E0E8
:100F400070E040E050E00E94C6118091E8008E778A
:100F50008093E80028960FB6F894DEBF0FBECDBF91
:100F6000CF91DF911F910F910895FC01809149016C
:100F7000843091F481899289A389B4890097A1056D
:100F8000B10551F081818093E900CB01BA0140E0C5
:100F900050E00E94C611089582E00895FC018091FE
:100FA0004901843051F581899289A389B4890097D8
:100FB000A105B10511F181818093E9004091F30011
:100FC0002091F200942F80E030E0822B932B892B2C
:100FD000B1F09091E8008091E8008E778093E8006E
:100FE00095FD0DC00E941C0A982F882349F480911A
:100FF000E8008E778093E80003C092E001C090E0A3
:10100000892F0895FC0180914901843059F4818928
:101010009289A389B4890097A105B10519F0CF0180
:101020000E94CE070895CF93DF93EC010DC080910D
:101030004901882319F42EEF3FEF0DC08C859D8563
:101040000E9402080E94B9068C859D850E940107B6
:101050009C0197FDECCFC901DF91CF9108951F93BB
:10106000FC01162F809149018430E1F48189928935
:10107000A389B4890097A105B105A1F0818180936E
:10108000E9008091E80085FD09C08091E8008E7735
:101090008093E8000E941C0A882329F41093F10031
:1010A00080E001C082E01F910895282FFB01848514
:1010B0009585622F0E942F08882319F420E030E0E4
:1010C00002C02FEF3FEFC9010895FC018091490153
:1010D0008430C9F481899289A389B4890097A105D4
:1010E000B10589F081818093E900DB010D9000203A
:1010F000E9F71197A61BB70BCB01BD0140E050E00B
:101100000E94C611089582E008951F93CF93DF9344
:10111000EC010D96FC018BE0DF011D928A95E9F749
:1011200011E08981181729F46A817B818C8152E052
:1011300010C08D81181731F46E817F81888552E04F
:1011400030E008C08985181741F56A857B858C8554
:1011500053E030E8882311F440E001C044E020E08F
:1011600088E090E003C02F5F880F991F86179707CC
:10117000D0F3852F90E056E0880F991F5A95E1F73C
:1011800060E0311161E0682B42602295207F422BA4
:10119000812F0E94B209882329F01F5F173009F0C0
:1011A000C0CF81E0DF91CF911F910895CF93DF935E
:1011B000EC018091E80083FFA4C0888190E0209139
:1011C0004E0130914F012817390709F09AC08091DC
:1011D0004B01813269F0823220F4803209F091C0F3
:1011E0003DC0823209F468C0833209F08AC079C0F8
:1011F00080914A01813A09F084C08091E800877F9C
:101200008093E8008091E80080FFFCCF89899A896B
:10121000AB89BC898093F100292F3A2F4B2F55279A
:101220002093F1009D01442755272093F1008B2F37
:101230009927AA27BB278093F1008D898093F1001D
:101240008E898093F1008F898093F1008091E8006E
:101250008E778093E8000E94FB0953C080914A0179
:10126000813209F04EC08091E800877F8093E800CA
:101270008091E80082FFFCCF8091F1009091F10015
:101280002091F1003091F100898B9A8B2B8B3C8B54
:101290008091F1008D8B8091F1008E8B8091F10017
:1012A0008F8B8091E8008B778093E8000E94FB0988
:1012B000CE010E946E0725C080914A01813209F556
:1012C0008091E800877F8093E8000E94FB0980916D
:1012D0004C0190914D019E878D87CE010E946E0733
:1012E00010C080914A01813261F48091E800877FCB
:1012F0008093E8000E94FB09CE0160914C010E949E
:101300006E07DF91CF910895DA01923049F0933062
:1013100061F09130F9F4ECEAF0E022E130E01EC037
:10132000EEEBF0E02EE330E019C0813049F081307F
:1013300018F0823079F408C0ECEFF0E0849107C037
:10134000E0E0F1E0849103C0EAE1F1E08491282F2C
:1013500030E004C0E0E0F0E020E030E0ED93FC930A
:10136000C9010895382F282F2CC02093E900231796
:1013700021F4762F942F50E006C07091EC009091EC
:10138000ED005091F00091FF1BC08091EB008E7F2B
:101390008093EB008091ED008D7F8093ED00809134
:1013A000EB0081608093EB007093EC009093ED0074
:1013B0005093F0008091EE0087FD02C080E0089518
:1013C0002F5F273090F23093E90081E0089510926A
:1013D000F40090E09093E9001092F0001092E80081
:1013E0001092ED008091EB008E7F8093EB009F5F69
:1013F000973081F7089580914A0188239CF404C0B6
:10140000809149018823B9F08091E80082FFF8CFEC
:101410008091E8008B778093E800089580914901DE
:10142000882349F08091E80080FFF8CF8091E800A0
:101430008E778093E80008954091E4005091E50094
:1014400024E68091EC0080FF24C08091E80080FDBC
:101450001EC080914901882311F482E008958530EF
:1014600011F483E008958091EB0085FF02C081E0D4
:1014700008958091E4009091E5008417950709F3A1
:10148000222311F484E008952150AC01DACF80E0EA
:1014900008958091E80082FFDCCFF9CF9C01409154
:1014A0005001509151014617570718F4F90190E087
:1014B00045C06115710511F0AB01F8CF8091E800CE
:1014C0008E778093E80040E050E0F0CF80914901B2
:1014D000882309F445C0853009F444C08091E800B0
:1014E00083FF02C081E008958091E80082FD32C050
:1014F0008091E80080FF22C08091F3009091F2007B
:10150000782F60E0292F30E0262B372B07C0819100
:101510008093F100415050402F5F3F4F41155105DE
:1015200019F02830310598F390E02830310509F49E
:1015300091E08091E8008E778093E8004115510595
:1015400029F6992319F606C080914901882341F0B4
:10155000853041F08091E80082FFF6CF80E0089569
:1015600082E0089583E008959C01409150015091DC
:1015700051014617570730F4FB013197E20FF31F73
:1015800090E046C06115710511F0AB01F5CF809177
:10159000E8008E778093E80040E050E0EDCF809146
:1015A0004901882309F446C0853009F445C080917B
:1015B000E80083FF02C081E008958091E80082FD89
:1015C00033C08091E80080FF23C08091F3009091A8
:1015D000F200782F60E0292F30E0262B372B08C04F
:1015E00080818093F1003197415050402F5F3F4FF1
:1015F0004115510519F02830310590F390E028305D
:10160000310509F491E08091E8008E778093E8003D
:101610004115510521F6992311F606C08091490123
:10162000882341F0853041F08091E80082FFF6CFB9
:1016300080E0089582E0089583E008959C0161159B
:10164000710529F48091E8008B778093E800F90117
:1016500027C080914901882399F1853099F18091C3
:10166000E80083FF02C081E008958091E80082FFD6
:10167000F0CF06C08091F10081936150704059F025
:101680002091F3008091F200322F20E090E0822B35
:10169000932B892B79F78091E8008B778093E80072
:1016A00061157105B1F606C080914901882341F0AA
:1016B000853041F08091E80080FFF6CF80E008950A
:1016C00082E0089583E008959C016115710511F091
:1016D000AB0107C08091E8008B778093E80040E081
:1016E00050E0FB013197E20FF31F28C080914901C0
:1016F0008823A1F18530A1F18091E80083FF02C029
:1017000081E008958091E80082FFF0CF07C08091CA
:10171000F100808331974150504059F02091F300FF
:101720008091F200322F20E090E0822B932B892BC6
:1017300071F78091E8008B778093E800411551059F
:10174000A9F606C080914901882341F0853041F017
:101750008091E80080FFF6CF80E0089582E0089550
:1017600083E008959C01409150015091510146172A
:10177000570718F4F90190E046C06115710511F0A2
:10178000AB01F8CF8091E8008E778093E80040E0CD
:1017900050E0F0CF80914901882309F447C085309B
:1017A00009F446C08091E80083FF02C081E00895FB
:1017B0008091E80082FD34C08091E80080FF23C062
:1017C0008091F3009091F200782F60E0292F30E0B3
:1017D000262B372B08C084918093F100319641501D
:1017E00050402F5F3F4F4115510519F0283031050A
:1017F00090F390E02830310509F491E08091E80001
:101800008E778093E8004115510521F6992309F060
:10181000C1CF06C080914901882341F0853041F055
:101820008091E80082FFF6CF80E0089582E008957D
:1018300083E008959C014091500150915101461759
:10184000570730F4FB013197E20FF31F90E046C0D9
:101850006115710511F0AB01F5CF8091E8008E772D
:101860008093E80040E050E0EDCF8091490188236B
:1018700009F447C0853009F446C08091E80083FF31
:1018800002C081E008958091E80082FD34C080911B
:10189000E80080FF23C08091F3009091F200782F40
:1018A00060E0292F30E0262B372B08C084918093ED
:1018B000F1003197415050402F5F3F4F4115510586
:1018C00019F02830310590F390E02830310509F403
:1018D00091E08091E8008E778093E80041155105F2
:1018E00021F6992309F0C1CF06C0809149018823D0
:1018F00041F0853041F08091E80082FFF6CF80E032
:10190000089582E0089583E00895EF92FF920F9387
:101910001F93CF93DF939C016115710511F07B013B
:1019200007C08091E8008B778093E800EE24FF24C5
:101930008B0101501040020F131F2EC080914901EE
:101940008823D1F18530D1F18091E80083FF02C076
:1019500081E035C08091E80082FFF0CF0DC060913A
:10196000F100C8010E944312015010400894E108A0
:10197000F108E114F10459F02091F3008091F20094
:10198000D22FC0E090E08C2B9D2B892B41F78091CA
:10199000E8008B778093E800E114F10479F606C043
:1019A00080914901882341F0853041F08091E80021
:1019B00080FFF6CF80E003C082E001C083E0DF91CA
:1019C000CF911F910F91FF90EF900895EF92FF92AA
:1019D0000F931F93CF93DF939C018B0161157105CA
:1019E00029F48091E8008B778093E80079012CC07E
:1019F000809149018823C1F18530C1F18091E800CF
:101A000083FF02C081E033C08091E80082FFF0CF05
:101A10000BC06091F100C7010E9443120894E11CC1
:101A2000F11C0150104059F02091F3008091F20018
:101A3000D22FC0E090E08C2B9D2B892B51F7809109
:101A4000E8008B778093E8000115110589F606C040
:101A500080914901882341F0853041F08091E80070
:101A600080FFF6CF80E003C082E001C083E0DF9119
:101A7000CF911F910F91FF90EF900895CF92DF9239
:101A8000EF92FF920F931F93CF93DF939C010091EE
:101A90005001109151010617170740F46B0108948B
:101AA000C108D108C20ED31E90E048C0611571056F
:101AB00011F08B01F3CF8091E8008E778093E800DE
:101AC00000E010E0EBCF80914901882309F449C080
:101AD000853009F448C08091E80083FF02C081E0AE
:101AE00043C08091E80082FD36C08091E80080FF0D
:101AF00025C08091F3009091F200F82EEE24C92FBA
:101B0000D0E0CE29DF290BC0C6010E943B12809392
:101B1000F1000894C108D108015010402196011528
:101B2000110519F0C830D10578F390E0289709F431
:101B300091E08091E8008E778093E800011511050F
:101B400011F6992309F0BFCF06C08091490188237F
:101B500041F0853041F08091E80082FFF6CF80E0CF
:101B600003C082E001C083E0DF91CF911F910F910C
:101B7000FF90EF90DF90CF900895CF92DF92EF9299
:101B8000FF920F931F93CF93DF939C01009150011D
:101B9000109151010617170718F4690190E048C029
:101BA0006115710511F08B01F8CF8091E8008E77F7
:101BB0008093E80000E010E0F0CF80914901882395
:101BC00009F449C0853009F448C08091E80083FFDA
:101BD00002C081E043C08091E80082FD36C0809160
:101BE000E80080FF25C08091F3009091F200F82E6C
:101BF000EE24C92FD0E0CE29DF290BC0C6010E94F8
:101C00003B128093F1000894C11CD11C015010407C
:101C100021960115110519F0C830D10578F390E02F
:101C2000289709F491E08091E8008E778093E8008E
:101C30000115110511F6992309F0BFCF06C0809157
:101C40004901882341F0853041F08091E80082FF0E
:101C5000F6CF80E003C082E001C083E0DF91CF9146
:101C60001F910F91FF90EF90DF90CF900895DF923A
:101C7000EF92FF920F931F93CF93DF93EC018B01B1
:101C80000E941C0AD82E882369F50115110529F038
:101C9000F80180819181C81BD90BEE24FF2420C05C
:101CA0008091E80085FD16C08091E8008E778093D2
:101CB000E8000115110549F0F801808191818E0D30
:101CC0009F1D9183808385E00EC00E941C0A88239B
:101CD00039F009C01092F10021970894E11CF11C21
:101CE0002097F1F68D2DDF91CF911F910F91FF90ED
:101CF000EF90DF900895DF92EF92FF920F931F9382
:101D0000CF93DF93EC018B010E941C0AD82E88230D
:101D100069F50115110529F0F80180819181C81B31
:101D2000D90BEE24FF2420C08091E80085FD16C069
:101D30008091E8008B778093E8000115110549F048
:101D4000F801808191818E0D9F1D9183808385E0B4
:101D50000EC00E941C0A882339F009C08091F1004E
:101D600021970894E11CF11C2097F1F68D2DDF914D
:101D7000CF911F910F91FF90EF90DF900895BF9248
:101D8000CF92DF92EF92FF920F931F93CF93DF9347
:101D90008C01EB016A010E941C0AB82E8823D1F540
:101DA00021970C0F1D1F2196C114D10439F0F601A3
:101DB00080819181C81BD90B081B190BEE24FF24CD
:101DC00027C08091E80085FD18C08091E8008B77DE
:101DD0008093E8000E94B906C114D10449F0F601CD
:101DE000808191818E0D9F1D9183808385E013C03A
:101DF0000E941C0A882361F00EC06091F100C801A6
:101E00000E9443120150104021970894E11CF11CDC
:101E10002097B9F68B2DDF91CF911F910F91FF90F5
:101E2000EF90DF90CF90BF900895BF92CF92DF9256
:101E3000EF92FF920F931F93CF93DF93182F092FE9
:101E40007B016A010E941C0AB82E8823D9F5812FD4
:101E5000902F9C01E901C114D10439F0F601808171
:101E60009181E81AF90AC80FD91F00E010E027C0D5
:101E70008091E80085FD18C08091E8008B77809301
:101E8000E8000E94B906C114D10449F0F60180812E
:101E90009181800F911F9183808385E014C00E94FF
:101EA0001C0A882361F00FC06091F100CE010E94EE
:101EB000431221960894E108F1080F5F1F4FE114C7
:101EC000F104B1F68B2DDF91CF911F910F91FF900F
:101ED000EF90DF90CF90BF900895BF92CF92DF92A6
:101EE000EF92FF920F931F93CF93DF938C01EB013F
:101EF0006A010E941C0AB82E8823D1F521970C0F85
:101F00001D1F2196C114D10439F0F6018081918101
:101F1000C81BD90B081B190BEE24FF2427C0809186
:101F2000E80085FD18C08091E8008E778093E80076
:101F30000E94B906C114D10449F0F6018081918153
:101F40008E0D9F1D9183808385E013C00E941C0A23
:101F5000882361F00EC0C8010E943B128093F100FB
:101F60000150104021970894E11CF11C2097B9F60C
:101F70008B2DDF91CF911F910F91FF90EF90DF900C
:101F8000CF90BF900895BF92CF92DF92EF92FF92D1
:101F90000F931F93CF93DF93182F092F7B016A01B3
:101FA0000E941C0AB82E8823D9F5812F902F9C01FE
:101FB000E901C114D10439F0F60180819181E81A58
:101FC000F90AC80FD91F00E010E027C08091E8008F
:101FD00085FD18C08091E8008E778093E8000E940C
:101FE000B906C114D10449F0F60180819181800FB6
:101FF000911F9183808385E014C00E941C0A88236E
:1020000061F00FC0CE010E943B128093F100219637
:102010000894E108F1080F5F1F4FE114F104B1F6D5
:102020008B2DDF91CF911F910F91FF90EF90DF905B
:10203000CF90BF900895BF92CF92DF92EF92FF9220
:102040000F931F93CF93DF938C01EB016A010E94E2
:102050001C0AB82E8823C9F521970C0F1D1F219645
:10206000C114D10439F0F60180819181C81BD90BCC
:10207000081B190BEE24FF2426C08091E80085FD83
:1020800018C08091E8008E778093E8000E94B9061E
:10209000C114D10449F0F601808191818E0D9F1DFC
:1020A0009183808385E012C00E941C0A882359F026
:1020B0000DC0F80184918093F100015010402197E8
:1020C0000894E11CF11C2097C1F68B2DDF91CF9174
:1020D0001F910F91FF90EF90DF90CF90BF900895E8
:1020E000BF92CF92DF92EF92FF920F931F93CF9305
:1020F000DF93182F092F7B016A010E941C0AB82E5A
:102100008823D1F5812F902FFC01EF01C114D10458
:1021100039F0F60180819181E81AF90AC80FD91FB8
:1021200000E010E026C08091E80085FD18C0809195
:10213000E8008E778093E8000E94B906C114D104AC
:1021400049F0F60180819181800F911F91838083F6
:1021500085E013C00E941C0A882359F00EC0FE01BE
:1021600084918093F10021960894E108F1080F5FB3
:102170001F4FE114F104B9F68B2DDF91CF911F9120
:102180000F91FF90EF90DF90CF90BF900895BF9296
:10219000CF92DF92EF92FF920F931F93CF93DF9333
:1021A0008C01EB016A010E941C0AB82E8823C9F534
:1021B00021970C0F1D1F2196C114D10439F0F6018F
:1021C00080819181C81BD90B081B190BEE24FF24B9
:1021D00026C08091E80085FD18C08091E8008B77CB
:1021E0008093E8000E94B906C114D10449F0F601B9
:1021F000808191818E0D9F1D9183808385E012C027
:102200000E941C0A882359F00DC08091F100F8014A
:1022100080830150104021970894E11CF11C209705
:10222000C1F68B2DDF91CF911F910F91FF90EF9011
:10223000DF90CF90BF900895BF92CF92DF92EF9240
:10224000FF920F931F93CF93DF93182F092F7B01DA
:102250006A010E941C0AB82E8823C1F5812F902F95
:102260009C01E901C114D10439F0F601808191810A
:10227000E81AF90AC80FD91F00E010E024C08091C5
:10228000E80085FD18C08091E8008B778093E80016
:102290000E94B906C114D10449F0F60180819181F0
:1022A000800F911F9183808385E011C00E941C0ADA
:1022B000882349F00CC08091F10089930894E108CB
:1022C000F1080F5F1F4FE114F104C9F68B2DDF9168
:1022D000CF911F910F91FF90EF90DF90CF90BF9023
:1022E0000895BF92CF92DF92EF92FF920F931F93C8
:1022F000CF93DF938C01EB016A010E941C0AB82E78
:102300008823C9F521970C0F1D1F2196C114D104F4
:1023100039F0F60180819181C81BD90B081B190B7C
:10232000EE24FF2426C08091E80085FD18C080912E
:10233000E8008E778093E8000E94B906C114D104AA
:1023400049F0F601808191818E0D9F1D91838083DC
:1023500085E012C00E941C0A882359F00DC0F801C4
:1023600080818093F1000150104021970894E11C76
:10237000F11C2097C1F68B2DDF91CF911F910F910A
:10238000FF90EF90DF90CF90BF900895BF92CF92D3
:10239000DF92EF92FF920F931F93CF93DF93182F4B
:1023A000092F7B016A010E941C0AB82E8823C1F5FF
:1023B000812F902F9C01E901C114D10439F0F6015D
:1023C00080819181E81AF90AC80FD91F00E010E056
:1023D00024C08091E80085FD18C08091E8008E77C8
:1023E0008093E8000E94B906C114D10449F0F601B7
:1023F00080819181800F911F9183808385E011C03E
:102400000E941C0A882349F00CC089918093F10036
:102410000894E108F1080F5F1F4FE114F104C9F6B9
:102420008B2DDF91CF911F910F91FF90EF90DF9057
:10243000CF90BF900895991B79E004C0991F96171B
:1024400008F0961B881F7A95C9F780950895AA1BF6
:10245000BB1B51E107C0AA1FBB1FA617B70710F08F
:10246000A61BB70B881F991F5A95A9F780959095C1
:10247000BC01CD010895F999FECF92BD81BDF89AB6
:10248000992780B50895262FF999FECF92BD81BD79
:10249000F89A019700B4021639F01FBA20BD0FB6A2
:0E24A000F894FA9AF99A0FBE0895F894FFCFB7
:1024AE0052656C6F6A0000031000000410000002F9
:1024BE000800000000000000000000000000A12045
:0624CE0000000000020006
:00000001FF
